{
  "_format": "hh-sol-artifact-1",
  "contractName": "Lottery",
  "sourceName": "contracts/Lottery.sol",
  "abi": [
    {
      "inputs": [
        {
          "internalType": "address",
          "name": "_lotteryToken",
          "type": "address"
        },
        {
          "internalType": "uint256",
          "name": "_purchaseRatio",
          "type": "uint256"
        },
        {
          "internalType": "uint256",
          "name": "_betPrice",
          "type": "uint256"
        }
      ],
      "stateMutability": "nonpayable",
      "type": "constructor"
    },
    {
      "anonymous": false,
      "inputs": [
        {
          "indexed": false,
          "internalType": "bool",
          "name": "isOpen",
          "type": "bool"
        },
        {
          "indexed": false,
          "internalType": "uint256",
          "name": "closingTime",
          "type": "uint256"
        }
      ],
      "name": "BetsStatus",
      "type": "event"
    },
    {
      "anonymous": false,
      "inputs": [
        {
          "indexed": false,
          "internalType": "address",
          "name": "receiver",
          "type": "address"
        },
        {
          "indexed": false,
          "internalType": "uint256",
          "name": "amount",
          "type": "uint256"
        }
      ],
      "name": "ClaimReward",
      "type": "event"
    },
    {
      "anonymous": false,
      "inputs": [
        {
          "indexed": true,
          "internalType": "address",
          "name": "previousOwner",
          "type": "address"
        },
        {
          "indexed": true,
          "internalType": "address",
          "name": "newOwner",
          "type": "address"
        }
      ],
      "name": "OwnershipTransferred",
      "type": "event"
    },
    {
      "anonymous": false,
      "inputs": [
        {
          "indexed": false,
          "internalType": "address",
          "name": "sender",
          "type": "address"
        },
        {
          "indexed": false,
          "internalType": "uint256",
          "name": "totalBet",
          "type": "uint256"
        }
      ],
      "name": "PlaceBets",
      "type": "event"
    },
    {
      "anonymous": false,
      "inputs": [
        {
          "indexed": false,
          "internalType": "address",
          "name": "sender",
          "type": "address"
        },
        {
          "indexed": false,
          "internalType": "uint256",
          "name": "amount",
          "type": "uint256"
        }
      ],
      "name": "PurchaseToken",
      "type": "event"
    },
    {
      "anonymous": false,
      "inputs": [
        {
          "indexed": false,
          "internalType": "address",
          "name": "receiver",
          "type": "address"
        },
        {
          "indexed": false,
          "internalType": "uint256",
          "name": "tokenAmount",
          "type": "uint256"
        },
        {
          "indexed": false,
          "internalType": "uint256",
          "name": "amount",
          "type": "uint256"
        }
      ],
      "name": "SellToken",
      "type": "event"
    },
    {
      "anonymous": false,
      "inputs": [
        {
          "indexed": false,
          "internalType": "address",
          "name": "receiver",
          "type": "address"
        },
        {
          "indexed": false,
          "internalType": "uint256",
          "name": "amount",
          "type": "uint256"
        }
      ],
      "name": "Winner",
      "type": "event"
    },
    {
      "anonymous": false,
      "inputs": [
        {
          "indexed": false,
          "internalType": "address",
          "name": "receiver",
          "type": "address"
        },
        {
          "indexed": false,
          "internalType": "uint256",
          "name": "amount",
          "type": "uint256"
        }
      ],
      "name": "Withdraw",
      "type": "event"
    },
    {
      "inputs": [],
      "name": "bet",
      "outputs": [],
      "stateMutability": "nonpayable",
      "type": "function"
    },
    {
      "inputs": [],
      "name": "betFee",
      "outputs": [
        {
          "internalType": "uint256",
          "name": "",
          "type": "uint256"
        }
      ],
      "stateMutability": "view",
      "type": "function"
    },
    {
      "inputs": [
        {
          "internalType": "uint256",
          "name": "times",
          "type": "uint256"
        }
      ],
      "name": "betMany",
      "outputs": [],
      "stateMutability": "nonpayable",
      "type": "function"
    },
    {
      "inputs": [],
      "name": "betPrice",
      "outputs": [
        {
          "internalType": "uint256",
          "name": "",
          "type": "uint256"
        }
      ],
      "stateMutability": "view",
      "type": "function"
    },
    {
      "inputs": [],
      "name": "betsClosingTime",
      "outputs": [
        {
          "internalType": "uint256",
          "name": "",
          "type": "uint256"
        }
      ],
      "stateMutability": "view",
      "type": "function"
    },
    {
      "inputs": [],
      "name": "betsOpen",
      "outputs": [
        {
          "internalType": "bool",
          "name": "",
          "type": "bool"
        }
      ],
      "stateMutability": "view",
      "type": "function"
    },
    {
      "inputs": [],
      "name": "closeLottery",
      "outputs": [],
      "stateMutability": "nonpayable",
      "type": "function"
    },
    {
      "inputs": [],
      "name": "getRandomNumber",
      "outputs": [
        {
          "internalType": "uint256",
          "name": "randomNumber",
          "type": "uint256"
        }
      ],
      "stateMutability": "view",
      "type": "function"
    },
    {
      "inputs": [
        {
          "internalType": "uint256",
          "name": "closingTime",
          "type": "uint256"
        }
      ],
      "name": "openBets",
      "outputs": [],
      "stateMutability": "nonpayable",
      "type": "function"
    },
    {
      "inputs": [],
      "name": "owner",
      "outputs": [
        {
          "internalType": "address",
          "name": "",
          "type": "address"
        }
      ],
      "stateMutability": "view",
      "type": "function"
    },
    {
      "inputs": [],
      "name": "ownerPool",
      "outputs": [
        {
          "internalType": "uint256",
          "name": "",
          "type": "uint256"
        }
      ],
      "stateMutability": "view",
      "type": "function"
    },
    {
      "inputs": [
        {
          "internalType": "uint256",
          "name": "amount",
          "type": "uint256"
        }
      ],
      "name": "ownerWithdraw",
      "outputs": [],
      "stateMutability": "nonpayable",
      "type": "function"
    },
    {
      "inputs": [],
      "name": "paymentToken",
      "outputs": [
        {
          "internalType": "contract ILotteryToken",
          "name": "",
          "type": "address"
        }
      ],
      "stateMutability": "view",
      "type": "function"
    },
    {
      "inputs": [
        {
          "internalType": "address",
          "name": "",
          "type": "address"
        }
      ],
      "name": "prize",
      "outputs": [
        {
          "internalType": "uint256",
          "name": "",
          "type": "uint256"
        }
      ],
      "stateMutability": "view",
      "type": "function"
    },
    {
      "inputs": [],
      "name": "prizePool",
      "outputs": [
        {
          "internalType": "uint256",
          "name": "",
          "type": "uint256"
        }
      ],
      "stateMutability": "view",
      "type": "function"
    },
    {
      "inputs": [
        {
          "internalType": "uint256",
          "name": "amount",
          "type": "uint256"
        }
      ],
      "name": "prizeWithdraw",
      "outputs": [],
      "stateMutability": "nonpayable",
      "type": "function"
    },
    {
      "inputs": [],
      "name": "purchaseRatio",
      "outputs": [
        {
          "internalType": "uint256",
          "name": "",
          "type": "uint256"
        }
      ],
      "stateMutability": "view",
      "type": "function"
    },
    {
      "inputs": [],
      "name": "purchaseTokens",
      "outputs": [],
      "stateMutability": "payable",
      "type": "function"
    },
    {
      "inputs": [],
      "name": "renounceOwnership",
      "outputs": [],
      "stateMutability": "nonpayable",
      "type": "function"
    },
    {
      "inputs": [
        {
          "internalType": "uint256",
          "name": "amount",
          "type": "uint256"
        }
      ],
      "name": "returnTokens",
      "outputs": [],
      "stateMutability": "nonpayable",
      "type": "function"
    },
    {
      "inputs": [
        {
          "internalType": "address",
          "name": "newOwner",
          "type": "address"
        }
      ],
      "name": "transferOwnership",
      "outputs": [],
      "stateMutability": "nonpayable",
      "type": "function"
    }
  ],
  "bytecode": "0x60806040523480156200001157600080fd5b5060405162001de238038062001de2833981810160405281019062000037919062000235565b620000576200004b620000c460201b60201c565b620000cc60201b60201c565b82600160006101000a81548173ffffffffffffffffffffffffffffffffffffffff021916908373ffffffffffffffffffffffffffffffffffffffff1602179055508160028190555080600381905550606481620000b59190620002c0565b600481905550505050620002f8565b600033905090565b60008060009054906101000a900473ffffffffffffffffffffffffffffffffffffffff169050816000806101000a81548173ffffffffffffffffffffffffffffffffffffffff021916908373ffffffffffffffffffffffffffffffffffffffff1602179055508173ffffffffffffffffffffffffffffffffffffffff168173ffffffffffffffffffffffffffffffffffffffff167f8be0079c531659141344cd1fd0a4f28419497f9722a3daafe3b4186f6b6457e060405160405180910390a35050565b600080fd5b600073ffffffffffffffffffffffffffffffffffffffff82169050919050565b6000620001c28262000195565b9050919050565b620001d481620001b5565b8114620001e057600080fd5b50565b600081519050620001f481620001c9565b92915050565b6000819050919050565b6200020f81620001fa565b81146200021b57600080fd5b50565b6000815190506200022f8162000204565b92915050565b60008060006060848603121562000251576200025062000190565b5b60006200026186828701620001e3565b935050602062000274868287016200021e565b925050604062000287868287016200021e565b9150509250925092565b7f4e487b7100000000000000000000000000000000000000000000000000000000600052601260045260246000fd5b6000620002cd82620001fa565b9150620002da83620001fa565b925082620002ed57620002ec62000291565b5b828204905092915050565b611ada80620003086000396000f3fe60806040526004361061012a5760003560e01c8063719ce73e116100ab57806395cadc471161006f57806395cadc4714610361578063990a49f51461038c578063cfd8a175146103b5578063d1b258ff146103e0578063dbdff2c11461040b578063f2fde38b146104365761012a565b8063719ce73e1461027a578063729e91e9146102a5578063841e6ce9146102ce5780638adf9c1f146102f95780638da5cb5b146103365761012a565b806333f707d1116100f257806333f707d1146101d15780633ae1786f146101fa5780633cc121e6146102235780636fd098161461024c578063715018a6146102635761012a565b806311610c251461012f57806318c34965146101465780632b65e040146101715780633013ce291461019c5780633290ce29146101c7575b600080fd5b34801561013b57600080fd5b5061014461045f565b005b34801561015257600080fd5b5061015b610642565b604051610168919061115e565b60405180910390f35b34801561017d57600080fd5b50610186610648565b604051610193919061115e565b60405180910390f35b3480156101a857600080fd5b506101b161064e565b6040516101be91906111f8565b60405180910390f35b6101cf610674565b005b3480156101dd57600080fd5b506101f860048036038101906101f39190611244565b610758565b005b34801561020657600080fd5b50610221600480360381019061021c9190611244565b61089b565b005b34801561022f57600080fd5b5061024a60048036038101906102459190611244565b6109c9565b005b34801561025857600080fd5b50610261610b7e565b005b34801561026f57600080fd5b50610278610d84565b005b34801561028657600080fd5b5061028f610d98565b60405161029c919061115e565b60405180910390f35b3480156102b157600080fd5b506102cc60048036038101906102c79190611244565b610d9e565b005b3480156102da57600080fd5b506102e3610dd3565b6040516102f0919061115e565b60405180910390f35b34801561030557600080fd5b50610320600480360381019061031b91906112af565b610dd9565b60405161032d919061115e565b60405180910390f35b34801561034257600080fd5b5061034b610df1565b60405161035891906112eb565b60405180910390f35b34801561036d57600080fd5b50610376610e1a565b604051610383919061115e565b60405180910390f35b34801561039857600080fd5b506103b360048036038101906103ae9190611244565b610e20565b005b3480156103c157600080fd5b506103ca610f19565b6040516103d7919061115e565b60405180910390f35b3480156103ec57600080fd5b506103f5610f1f565b6040516104029190611321565b60405180910390f35b34801561041757600080fd5b50610420610f32565b60405161042d919061115e565b60405180910390f35b34801561044257600080fd5b5061045d600480360381019061045891906112af565b610f3a565b005b600760009054906101000a900460ff16801561047c575060085442105b6104bb576040517f08c379a00000000000000000000000000000000000000000000000000000000081526004016104b290611399565b60405180910390fd5b600454600660008282546104cf91906113e8565b92505081905550600354600560008282546104ea91906113e8565b92505081905550600a339080600181540180825580915050600190039060005260206000200160009091909190916101000a81548173ffffffffffffffffffffffffffffffffffffffff021916908373ffffffffffffffffffffffffffffffffffffffff160217905550600160009054906101000a900473ffffffffffffffffffffffffffffffffffffffff1673ffffffffffffffffffffffffffffffffffffffff166323b872dd33306004546003546105a491906113e8565b6040518463ffffffff1660e01b81526004016105c29392919061141c565b6020604051808303816000875af11580156105e1573d6000803e3d6000fd5b505050506040513d601f19601f82011682018060405250810190610605919061147f565b507f4e8b087c906966c0b5972dd7cba96d18d18e9e6aa7534678de7eef149d07b35a3360016040516106389291906114e7565b60405180910390a1565b60085481565b60065481565b600160009054906101000a900473ffffffffffffffffffffffffffffffffffffffff1681565b600160009054906101000a900473ffffffffffffffffffffffffffffffffffffffff1673ffffffffffffffffffffffffffffffffffffffff166340c10f1933600254346106c19190611510565b6040518363ffffffff1660e01b81526004016106de929190611552565b600060405180830381600087803b1580156106f857600080fd5b505af115801561070c573d6000803e3d6000fd5b505050507fda1dce1c1c09e2aac3b3102b3c2c05cd59916e58e0465257bb731da30aee828033600254346107409190611510565b60405161074e929190611552565b60405180910390a1565b610760610fbd565b6006548111156107a5576040517f08c379a000000000000000000000000000000000000000000000000000000000815260040161079c906115c7565b60405180910390fd5b80600660008282546107b791906115e7565b92505081905550600160009054906101000a900473ffffffffffffffffffffffffffffffffffffffff1673ffffffffffffffffffffffffffffffffffffffff1663a9059cbb33836040518363ffffffff1660e01b815260040161081b929190611552565b6020604051808303816000875af115801561083a573d6000803e3d6000fd5b505050506040513d601f19601f8201168201806040525081019061085e919061147f565b507f884edad9ce6fa2440d8a54cc123490eb96d2768479d49ff9c7366125a94243643382604051610890929190611552565b60405180910390a150565b600160009054906101000a900473ffffffffffffffffffffffffffffffffffffffff1673ffffffffffffffffffffffffffffffffffffffff166379cc679033836040518363ffffffff1660e01b81526004016108f8929190611552565b600060405180830381600087803b15801561091257600080fd5b505af1158015610926573d6000803e3d6000fd5b505050503373ffffffffffffffffffffffffffffffffffffffff166108fc60025483610952919061164a565b9081150290604051600060405180830381858888f1935050505015801561097d573d6000803e3d6000fd5b507fa8ff15eb642b39da3ab82bb74a87b76cc3e1aef2b82b70bc2a35458386db29aa3382600254846109af919061164a565b6040516109be9392919061167b565b60405180910390a150565b600960003373ffffffffffffffffffffffffffffffffffffffff1673ffffffffffffffffffffffffffffffffffffffff16815260200190815260200160002054811115610a4b576040517f08c379a0000000000000000000000000000000000000000000000000000000008152600401610a42906116fe565b60405180910390fd5b80600960003373ffffffffffffffffffffffffffffffffffffffff1673ffffffffffffffffffffffffffffffffffffffff1681526020019081526020016000206000828254610a9a91906115e7565b92505081905550600160009054906101000a900473ffffffffffffffffffffffffffffffffffffffff1673ffffffffffffffffffffffffffffffffffffffff1663a9059cbb33836040518363ffffffff1660e01b8152600401610afe929190611552565b6020604051808303816000875af1158015610b1d573d6000803e3d6000fd5b505050506040513d601f19601f82011682018060405250810190610b41919061147f565b507fba8de60c3403ec381d1d484652ea1980e3c3e56359195c92525bff4ce47ad98e3382604051610b73929190611552565b60405180910390a150565b600854421015610bc3576040517f08c379a0000000000000000000000000000000000000000000000000000000008152600401610bba9061176a565b60405180910390fd5b600760009054906101000a900460ff16610c12576040517f08c379a0000000000000000000000000000000000000000000000000000000008152600401610c09906117d6565b60405180910390fd5b6000600a805490501115610d2b576000600a80549050610c30610f32565b610c3a91906117f6565b90506000600a8281548110610c5257610c51611827565b5b9060005260206000200160009054906101000a900473ffffffffffffffffffffffffffffffffffffffff169050600554600960008373ffffffffffffffffffffffffffffffffffffffff1673ffffffffffffffffffffffffffffffffffffffff1681526020019081526020016000206000828254610cd091906113e8565b925050819055507f9c2270628a9b29d30ae96b6c4c14ed646ee134febdce38a5b77f2bde9cea2e2081600554604051610d0a929190611552565b60405180910390a16000600581905550600a6000610d289190611107565b50505b6000600760006101000a81548160ff0219169083151502179055507fb99bb7a44588b4ccf99f404da2cb27e347a1680424e0a7ec1736fb5029e944976000600854604051610d7a929190611856565b60405180910390a1565b610d8c610fbd565b610d96600061103b565b565b60055481565b60008111610dab57600080fd5b5b6000811115610dd057610dbd61045f565b8080610dc89061187f565b915050610dac565b50565b60045481565b60096020528060005260406000206000915090505481565b60008060009054906101000a900473ffffffffffffffffffffffffffffffffffffffff16905090565b60025481565b610e28610fbd565b600760009054906101000a900460ff1615610e78576040517f08c379a0000000000000000000000000000000000000000000000000000000008152600401610e6f906118f4565b60405180910390fd5b428111610eba576040517f08c379a0000000000000000000000000000000000000000000000000000000008152600401610eb190611986565b60405180910390fd5b806008819055506001600760006101000a81548160ff0219169083151502179055507fb99bb7a44588b4ccf99f404da2cb27e347a1680424e0a7ec1736fb5029e94497600182604051610f0e929190611856565b60405180910390a150565b60035481565b600760009054906101000a900460ff1681565b600044905090565b610f42610fbd565b600073ffffffffffffffffffffffffffffffffffffffff168173ffffffffffffffffffffffffffffffffffffffff1603610fb1576040517f08c379a0000000000000000000000000000000000000000000000000000000008152600401610fa890611a18565b60405180910390fd5b610fba8161103b565b50565b610fc56110ff565b73ffffffffffffffffffffffffffffffffffffffff16610fe3610df1565b73ffffffffffffffffffffffffffffffffffffffff1614611039576040517f08c379a000000000000000000000000000000000000000000000000000000000815260040161103090611a84565b60405180910390fd5b565b60008060009054906101000a900473ffffffffffffffffffffffffffffffffffffffff169050816000806101000a81548173ffffffffffffffffffffffffffffffffffffffff021916908373ffffffffffffffffffffffffffffffffffffffff1602179055508173ffffffffffffffffffffffffffffffffffffffff168173ffffffffffffffffffffffffffffffffffffffff167f8be0079c531659141344cd1fd0a4f28419497f9722a3daafe3b4186f6b6457e060405160405180910390a35050565b600033905090565b50805460008255906000526020600020908101906111259190611128565b50565b5b80821115611141576000816000905550600101611129565b5090565b6000819050919050565b61115881611145565b82525050565b6000602082019050611173600083018461114f565b92915050565b600073ffffffffffffffffffffffffffffffffffffffff82169050919050565b6000819050919050565b60006111be6111b96111b484611179565b611199565b611179565b9050919050565b60006111d0826111a3565b9050919050565b60006111e2826111c5565b9050919050565b6111f2816111d7565b82525050565b600060208201905061120d60008301846111e9565b92915050565b600080fd5b61122181611145565b811461122c57600080fd5b50565b60008135905061123e81611218565b92915050565b60006020828403121561125a57611259611213565b5b60006112688482850161122f565b91505092915050565b600061127c82611179565b9050919050565b61128c81611271565b811461129757600080fd5b50565b6000813590506112a981611283565b92915050565b6000602082840312156112c5576112c4611213565b5b60006112d38482850161129a565b91505092915050565b6112e581611271565b82525050565b600060208201905061130060008301846112dc565b92915050565b60008115159050919050565b61131b81611306565b82525050565b60006020820190506113366000830184611312565b92915050565b600082825260208201905092915050565b7f4c6f747465727920697320636c6f736564000000000000000000000000000000600082015250565b600061138360118361133c565b915061138e8261134d565b602082019050919050565b600060208201905081810360008301526113b281611376565b9050919050565b7f4e487b7100000000000000000000000000000000000000000000000000000000600052601160045260246000fd5b60006113f382611145565b91506113fe83611145565b9250828201905080821115611416576114156113b9565b5b92915050565b600060608201905061143160008301866112dc565b61143e60208301856112dc565b61144b604083018461114f565b949350505050565b61145c81611306565b811461146757600080fd5b50565b60008151905061147981611453565b92915050565b60006020828403121561149557611494611213565b5b60006114a38482850161146a565b91505092915050565b6000819050919050565b60006114d16114cc6114c7846114ac565b611199565b611145565b9050919050565b6114e1816114b6565b82525050565b60006040820190506114fc60008301856112dc565b61150960208301846114d8565b9392505050565b600061151b82611145565b915061152683611145565b925082820261153481611145565b9150828204841483151761154b5761154a6113b9565b5b5092915050565b600060408201905061156760008301856112dc565b611574602083018461114f565b9392505050565b7f4e6f7420656e6f756768206665657320636f6c6c656374656400000000000000600082015250565b60006115b160198361133c565b91506115bc8261157b565b602082019050919050565b600060208201905081810360008301526115e0816115a4565b9050919050565b60006115f282611145565b91506115fd83611145565b9250828203905081811115611615576116146113b9565b5b92915050565b7f4e487b7100000000000000000000000000000000000000000000000000000000600052601260045260246000fd5b600061165582611145565b915061166083611145565b9250826116705761166f61161b565b5b828204905092915050565b600060608201905061169060008301866112dc565b61169d602083018561114f565b6116aa604083018461114f565b949350505050565b7f4e6f7420656e6f756768207072697a6500000000000000000000000000000000600082015250565b60006116e860108361133c565b91506116f3826116b2565b602082019050919050565b60006020820190508181036000830152611717816116db565b9050919050565b7f546f6f20736f6f6e20746f20636c6f7365000000000000000000000000000000600082015250565b600061175460118361133c565b915061175f8261171e565b602082019050919050565b6000602082019050818103600083015261178381611747565b9050919050565b7f416c726561647920636c6f736564000000000000000000000000000000000000600082015250565b60006117c0600e8361133c565b91506117cb8261178a565b602082019050919050565b600060208201905081810360008301526117ef816117b3565b9050919050565b600061180182611145565b915061180c83611145565b92508261181c5761181b61161b565b5b828206905092915050565b7f4e487b7100000000000000000000000000000000000000000000000000000000600052603260045260246000fd5b600060408201905061186b6000830185611312565b611878602083018461114f565b9392505050565b600061188a82611145565b91506000820361189d5761189c6113b9565b5b600182039050919050565b7f4c6f7474657279206973206f70656e0000000000000000000000000000000000600082015250565b60006118de600f8361133c565b91506118e9826118a8565b602082019050919050565b6000602082019050818103600083015261190d816118d1565b9050919050565b7f436c6f73696e672074696d65206d75737420626520696e20746865206675747560008201527f7265000000000000000000000000000000000000000000000000000000000000602082015250565b600061197060228361133c565b915061197b82611914565b604082019050919050565b6000602082019050818103600083015261199f81611963565b9050919050565b7f4f776e61626c653a206e6577206f776e657220697320746865207a65726f206160008201527f6464726573730000000000000000000000000000000000000000000000000000602082015250565b6000611a0260268361133c565b9150611a0d826119a6565b604082019050919050565b60006020820190508181036000830152611a31816119f5565b9050919050565b7f4f776e61626c653a2063616c6c6572206973206e6f7420746865206f776e6572600082015250565b6000611a6e60208361133c565b9150611a7982611a38565b602082019050919050565b60006020820190508181036000830152611a9d81611a61565b905091905056fea2646970667358221220f9bbb159b59275fee157f11d9d0e1a8b36b3916f69b66b26677c4f249d7c5e1a64736f6c63430008130033",
  "linkReferences": {},
  "deployedLinkReferences": {}
}